{
  "_format": "hh-sol-artifact-1",
  "contractName": "Employees",
  "sourceName": "contracts/Employees.sol",
  "abi": [
    {
      "inputs": [],
      "stateMutability": "nonpayable",
      "type": "constructor"
    },
    {
      "anonymous": false,
      "inputs": [
        {
          "indexed": false,
          "internalType": "uint256",
          "name": "id",
          "type": "uint256"
        }
      ],
      "name": "Created",
      "type": "event"
    },
    {
      "inputs": [
        {
          "internalType": "uint256",
          "name": "age",
          "type": "uint256"
        },
        {
          "internalType": "string",
          "name": "city",
          "type": "string"
        },
        {
          "internalType": "string",
          "name": "name",
          "type": "string"
        },
        {
          "internalType": "string",
          "name": "note",
          "type": "string"
        }
      ],
      "name": "add",
      "outputs": [],
      "stateMutability": "nonpayable",
      "type": "function"
    },
    {
      "inputs": [],
      "name": "getCount",
      "outputs": [
        {
          "internalType": "uint256",
          "name": "count",
          "type": "uint256"
        }
      ],
      "stateMutability": "view",
      "type": "function"
    },
    {
      "inputs": [],
      "name": "getEmployees",
      "outputs": [
        {
          "components": [
            {
              "internalType": "uint256",
              "name": "id",
              "type": "uint256"
            },
            {
              "internalType": "string",
              "name": "name",
              "type": "string"
            },
            {
              "internalType": "uint256",
              "name": "age",
              "type": "uint256"
            },
            {
              "internalType": "string",
              "name": "city",
              "type": "string"
            },
            {
              "internalType": "string",
              "name": "note",
              "type": "string"
            }
          ],
          "internalType": "struct Employees.Employee[]",
          "name": "values",
          "type": "tuple[]"
        }
      ],
      "stateMutability": "view",
      "type": "function"
    }
  ],
  "bytecode": "0x60806040523480156200001157600080fd5b50620000c660206040518060400160405280600681526020017f52616e63686900000000000000000000000000000000000000000000000000008152506040518060400160405280600c81526020017f56696a6179205068696c697000000000000000000000000000000000000000008152506040518060400160405280601581526020017f536f6d65206f662056696a61792773206e6f74657300000000000000000000008152506200066c60201b60201c565b6200017a60166040518060400160405280600581526020017f53757261740000000000000000000000000000000000000000000000000000008152506040518060400160405280600c81526020017f416d6f6c696b61204d6f647900000000000000000000000000000000000000008152506040518060400160405280601781526020017f536f6d65206f6620416d6f6c696b612773206e6f7465730000000000000000008152506200066c60201b60201c565b6200022e602c6040518060400160405280600781526020017f4a6f6468707572000000000000000000000000000000000000000000000000008152506040518060400160405280600c81526020017f4e696b69746120536574686900000000000000000000000000000000000000008152506040518060400160405280601681526020017f536f6d65206f66204e696b6974612773206e6f746573000000000000000000008152506200066c60201b60201c565b620002e260296040518060400160405280600681526020017f496e646f726500000000000000000000000000000000000000000000000000008152506040518060400160405280600c81526020017f537572616a204d697474616c00000000000000000000000000000000000000008152506040518060400160405280601581526020017f536f6d65206f6620537572616a2773206e6f74657300000000000000000000008152506200066c60201b60201c565b6200039660126040518060400160405280600981526020017f48796465726162616400000000000000000000000000000000000000000000008152506040518060400160405280601681526020017f5368617368616e6b20507261736164204d6974746572000000000000000000008152506040518060400160405280601881526020017f536f6d65206f66205368617368616e6b2773206e6f74657300000000000000008152506200066c60201b60201c565b6200044a60126040518060400160405280600781526020017f55646169707572000000000000000000000000000000000000000000000000008152506040518060400160405280601181526020017f476f777269205369726973682053756c650000000000000000000000000000008152506040518060400160405280601581526020017f536f6d65206f6620476f7772692773206e6f74657300000000000000000000008152506200066c60201b60201c565b620004fe60216040518060400160405280600581526020017f53757261740000000000000000000000000000000000000000000000000000008152506040518060400160405280601181526020017f47616a656e6472612052616f20507572690000000000000000000000000000008152506040518060400160405280601881526020017f536f6d65206f662047616a656e6472612773206e6f74657300000000000000008152506200066c60201b60201c565b620005b2602a6040518060400160405280600781526020017f4c75636b6e6f77000000000000000000000000000000000000000000000000008152506040518060400160405280600c81526020017f4d697465736820446f73686900000000000000000000000000000000000000008152506040518060400160405280601681526020017f536f6d65206f66204d69746573682773206e6f746573000000000000000000008152506200066c60201b60201c565b6200066660146040518060400160405280600681526020017f42686f70616c00000000000000000000000000000000000000000000000000008152506040518060400160405280600981526020017f4b7573756d2044617200000000000000000000000000000000000000000000008152506040518060400160405280601581526020017f536f6d65206f66204b7573756d2773206e6f74657300000000000000000000008152506200066c60201b60201c565b62000968565b600060016000805490506200068291906200086d565b905060006040518060a001604052808381526020018581526020018781526020018681526020018481525090506000819080600181540180825580915050600190039060005260206000209060050201600090919091909150600082015181600001556020820151816001019080519060200190620007039291906200078f565b506040820151816002015560608201518160030190805190602001906200072c9291906200078f565b5060808201518160040190805190602001906200074b9291906200078f565b5050507f06acbfb32bcf8383f3b0a768b70ac9ec234ea0f2d3b9c77fa6a2de69b919aad1826040516200077f919062000850565b60405180910390a1505050505050565b8280546200079d90620008d4565b90600052602060002090601f016020900481019282620007c157600085556200080d565b82601f10620007dc57805160ff19168380011785556200080d565b828001600101855582156200080d579182015b828111156200080c578251825591602001919060010190620007ef565b5b5090506200081c919062000820565b5090565b5b808211156200083b57600081600090555060010162000821565b5090565b6200084a81620008ca565b82525050565b60006020820190506200086760008301846200083f565b92915050565b60006200087a82620008ca565b91506200088783620008ca565b9250827fffffffffffffffffffffffffffffffffffffffffffffffffffffffffffffffff03821115620008bf57620008be6200090a565b5b828201905092915050565b6000819050919050565b60006002820490506001821680620008ed57607f821691505b6020821081141562000904576200090362000939565b5b50919050565b7f4e487b7100000000000000000000000000000000000000000000000000000000600052601160045260246000fd5b7f4e487b7100000000000000000000000000000000000000000000000000000000600052602260045260246000fd5b6109f380620009786000396000f3fe608060405234801561001057600080fd5b50600436106100415760003560e01c80634abefa36146100465780634e0c1a7414610064578063a87d942c14610080575b600080fd5b61004e61009e565b60405161005b919061071b565b60405180910390f35b61007e6004803603810190610079919061050c565b6102c7565b005b6100886103e0565b604051610095919061073d565b60405180910390f35b60606000805480602002602001604051908101604052809291908181526020016000905b828210156102be57838290600052602060002090600502016040518060a0016040529081600082015481526020016001820180546100ff906108a5565b80601f016020809104026020016040519081016040528092919081815260200182805461012b906108a5565b80156101785780601f1061014d57610100808354040283529160200191610178565b820191906000526020600020905b81548152906001019060200180831161015b57829003601f168201915b505050505081526020016002820154815260200160038201805461019b906108a5565b80601f01602080910402602001604051908101604052809291908181526020018280546101c7906108a5565b80156102145780601f106101e957610100808354040283529160200191610214565b820191906000526020600020905b8154815290600101906020018083116101f757829003601f168201915b5050505050815260200160048201805461022d906108a5565b80601f0160208091040260200160405190810160405280929190818152602001828054610259906108a5565b80156102a65780601f1061027b576101008083540402835291602001916102a6565b820191906000526020600020905b81548152906001019060200180831161028957829003601f168201915b505050505081525050815260200190600101906100c2565b50505050905090565b600060016000805490506102db9190610803565b905060006040518060a00160405280838152602001858152602001878152602001868152602001848152509050600081908060018154018082558091505060019003906000526020600020906005020160009091909190915060008201518160000155602082015181600101908051906020019061035a9291906103ec565b506040820151816002015560608201518160030190805190602001906103819291906103ec565b50608082015181600401908051906020019061039e9291906103ec565b5050507f06acbfb32bcf8383f3b0a768b70ac9ec234ea0f2d3b9c77fa6a2de69b919aad1826040516103d0919061073d565b60405180910390a1505050505050565b60008080549050905090565b8280546103f8906108a5565b90600052602060002090601f01602090048101928261041a5760008555610461565b82601f1061043357805160ff1916838001178555610461565b82800160010185558215610461579182015b82811115610460578251825591602001919060010190610445565b5b50905061046e9190610472565b5090565b5b8082111561048b576000816000905550600101610473565b5090565b60006104a261049d8461077d565b610758565b9050828152602081018484840111156104ba57600080fd5b6104c5848285610863565b509392505050565b600082601f8301126104de57600080fd5b81356104ee84826020860161048f565b91505092915050565b600081359050610506816109a6565b92915050565b6000806000806080858703121561052257600080fd5b6000610530878288016104f7565b945050602085013567ffffffffffffffff81111561054d57600080fd5b610559878288016104cd565b935050604085013567ffffffffffffffff81111561057657600080fd5b610582878288016104cd565b925050606085013567ffffffffffffffff81111561059f57600080fd5b6105ab878288016104cd565b91505092959194509250565b60006105c38383610679565b905092915050565b60006105d6826107be565b6105e081856107e1565b9350836020820285016105f2856107ae565b8060005b8581101561062e578484038952815161060f85826105b7565b945061061a836107d4565b925060208a019950506001810190506105f6565b50829750879550505050505092915050565b600061064b826107c9565b61065581856107f2565b9350610665818560208601610872565b61066e81610995565b840191505092915050565b600060a08301600083015161069160008601826106fd565b50602083015184820360208601526106a98282610640565b91505060408301516106be60408601826106fd565b50606083015184820360608601526106d68282610640565b915050608083015184820360808601526106f08282610640565b9150508091505092915050565b61070681610859565b82525050565b61071581610859565b82525050565b6000602082019050818103600083015261073581846105cb565b905092915050565b6000602082019050610752600083018461070c565b92915050565b6000610762610773565b905061076e82826108d7565b919050565b6000604051905090565b600067ffffffffffffffff82111561079857610797610966565b5b6107a182610995565b9050602081019050919050565b6000819050602082019050919050565b600081519050919050565b600081519050919050565b6000602082019050919050565b600082825260208201905092915050565b600082825260208201905092915050565b600061080e82610859565b915061081983610859565b9250827fffffffffffffffffffffffffffffffffffffffffffffffffffffffffffffffff0382111561084e5761084d610908565b5b828201905092915050565b6000819050919050565b82818337600083830152505050565b60005b83811015610890578082015181840152602081019050610875565b8381111561089f576000848401525b50505050565b600060028204905060018216806108bd57607f821691505b602082108114156108d1576108d0610937565b5b50919050565b6108e082610995565b810181811067ffffffffffffffff821117156108ff576108fe610966565b5b80604052505050565b7f4e487b7100000000000000000000000000000000000000000000000000000000600052601160045260246000fd5b7f4e487b7100000000000000000000000000000000000000000000000000000000600052602260045260246000fd5b7f4e487b7100000000000000000000000000000000000000000000000000000000600052604160045260246000fd5b6000601f19601f8301169050919050565b6109af81610859565b81146109ba57600080fd5b5056fea2646970667358221220938cce761d15bb1d5f4593783f16a26ffdd135632e8ebd391b665e9a06c186be64736f6c63430008040033",
  "linkReferences": {},
  "deployedLinkReferences": {}
}