{
  "_format": "hh-sol-artifact-1",
  "contractName": "MyNFTTokenFactory",
  "sourceName": "contracts/MyNFTFactory.sol",
  "abi": [
    {
      "inputs": [],
      "stateMutability": "nonpayable",
      "type": "constructor"
    },
    {
      "anonymous": false,
      "inputs": [
        {
          "indexed": true,
          "internalType": "address",
          "name": "tokenAddress",
          "type": "address"
        }
      ],
      "name": "NftCreated",
      "type": "event"
    },
    {
      "anonymous": false,
      "inputs": [
        {
          "indexed": true,
          "internalType": "address",
          "name": "previousOwner",
          "type": "address"
        },
        {
          "indexed": true,
          "internalType": "address",
          "name": "newOwner",
          "type": "address"
        }
      ],
      "name": "OwnershipTransferred",
      "type": "event"
    },
    {
      "inputs": [
        {
          "internalType": "string",
          "name": "name",
          "type": "string"
        },
        {
          "internalType": "string",
          "name": "symbol",
          "type": "string"
        },
        {
          "internalType": "string",
          "name": "color",
          "type": "string"
        }
      ],
      "name": "createNft",
      "outputs": [],
      "stateMutability": "nonpayable",
      "type": "function"
    },
    {
      "inputs": [
        {
          "internalType": "address",
          "name": "nftAddress",
          "type": "address"
        }
      ],
      "name": "getNFTDetails",
      "outputs": [
        {
          "internalType": "string",
          "name": "name",
          "type": "string"
        },
        {
          "internalType": "string",
          "name": "symbol",
          "type": "string"
        },
        {
          "internalType": "string",
          "name": "color",
          "type": "string"
        }
      ],
      "stateMutability": "view",
      "type": "function"
    },
    {
      "inputs": [],
      "name": "owner",
      "outputs": [
        {
          "internalType": "address",
          "name": "",
          "type": "address"
        }
      ],
      "stateMutability": "view",
      "type": "function"
    },
    {
      "inputs": [],
      "name": "renounceOwnership",
      "outputs": [],
      "stateMutability": "nonpayable",
      "type": "function"
    },
    {
      "inputs": [
        {
          "internalType": "address",
          "name": "newOwner",
          "type": "address"
        }
      ],
      "name": "transferOwnership",
      "outputs": [],
      "stateMutability": "nonpayable",
      "type": "function"
    }
  ],
  "bytecode": "0x60806040523480156200001157600080fd5b5062000032620000266200051660201b60201c565b6200051e60201b60201c565b620000e46040518060400160405280600681526020017f56696f6c657400000000000000000000000000000000000000000000000000008152506040518060400160405280600281526020017f56540000000000000000000000000000000000000000000000000000000000008152506040518060400160405280600781526020017f2339343030443300000000000000000000000000000000000000000000000000815250620005e260201b60201c565b620001966040518060400160405280600681526020017f496e6469676f00000000000000000000000000000000000000000000000000008152506040518060400160405280600281526020017f49470000000000000000000000000000000000000000000000000000000000008152506040518060400160405280600781526020017f2334423030383200000000000000000000000000000000000000000000000000815250620005e260201b60201c565b620002486040518060400160405280600481526020017f426c7565000000000000000000000000000000000000000000000000000000008152506040518060400160405280600281526020017f424c0000000000000000000000000000000000000000000000000000000000008152506040518060400160405280600781526020017f2330303030464600000000000000000000000000000000000000000000000000815250620005e260201b60201c565b620002fa6040518060400160405280600581526020017f477265656e0000000000000000000000000000000000000000000000000000008152506040518060400160405280600281526020017f474e0000000000000000000000000000000000000000000000000000000000008152506040518060400160405280600781526020017f2330304646303000000000000000000000000000000000000000000000000000815250620005e260201b60201c565b620003ac6040518060400160405280600681526020017f59656c6c6f7700000000000000000000000000000000000000000000000000008152506040518060400160405280600281526020017f594c0000000000000000000000000000000000000000000000000000000000008152506040518060400160405280600781526020017f2346464646303000000000000000000000000000000000000000000000000000815250620005e260201b60201c565b6200045e6040518060400160405280600681526020017f4f72616e676500000000000000000000000000000000000000000000000000008152506040518060400160405280600281526020017f4f4e0000000000000000000000000000000000000000000000000000000000008152506040518060400160405280600781526020017f2346463746303000000000000000000000000000000000000000000000000000815250620005e260201b60201c565b620005106040518060400160405280600381526020017f52656400000000000000000000000000000000000000000000000000000000008152506040518060400160405280600281526020017f52440000000000000000000000000000000000000000000000000000000000008152506040518060400160405280600781526020017f2346463030303000000000000000000000000000000000000000000000000000815250620005e260201b60201c565b62000894565b600033905090565b60008060009054906101000a900473ffffffffffffffffffffffffffffffffffffffff169050816000806101000a81548173ffffffffffffffffffffffffffffffffffffffff021916908373ffffffffffffffffffffffffffffffffffffffff1602179055508173ffffffffffffffffffffffffffffffffffffffff168173ffffffffffffffffffffffffffffffffffffffff167f8be0079c531659141344cd1fd0a4f28419497f9722a3daafe3b4186f6b6457e060405160405180910390a35050565b620005f26200051660201b60201c565b73ffffffffffffffffffffffffffffffffffffffff1662000618620006f560201b60201c565b73ffffffffffffffffffffffffffffffffffffffff161462000671576040517f08c379a00000000000000000000000000000000000000000000000000000000081526004016200066890620007e6565b60405180910390fd5b82828260405162000682906200071e565b620006909392919062000794565b604051809103906000f080158015620006ad573d6000803e3d6000fd5b5073ffffffffffffffffffffffffffffffffffffffff167febd15d054d361c60c58f9925b0eb215a65c72da767d3f8840f6ad8efd8101a3660405160405180910390a2505050565b60008060009054906101000a900473ffffffffffffffffffffffffffffffffffffffff16905090565b612d05806200419083390190565b6000620007398262000808565b62000745818562000813565b93506200075781856020860162000824565b62000762816200085a565b840191505092915050565b60006200077c60208362000813565b915062000789826200086b565b602082019050919050565b60006060820190508181036000830152620007b081866200072c565b90508181036020830152620007c681856200072c565b90508181036040830152620007dc81846200072c565b9050949350505050565b6000602082019050818103600083015262000801816200076d565b9050919050565b600081519050919050565b600082825260208201905092915050565b60005b838110156200084457808201518184015260208101905062000827565b8381111562000854576000848401525b50505050565b6000601f19601f8301169050919050565b7f4f776e61626c653a2063616c6c6572206973206e6f7420746865206f776e6572600082015250565b6138ec80620008a46000396000f3fe60806040523480156200001157600080fd5b50600436106200005e5760003560e01c8063497a985014620000635780636cb828981462000083578063715018a614620000bb5780638da5cb5b14620000c7578063f2fde38b14620000e9575b600080fd5b6200008160048036038101906200007b9190620007c1565b62000109565b005b620000a160048036038101906200009b919062000750565b62000210565b604051620000b2939291906200091f565b60405180910390f35b620000c5620003bd565b005b620000d16200044e565b604051620000e0919062000902565b60405180910390f35b62000107600480360381019062000101919062000750565b62000477565b005b620001136200057b565b73ffffffffffffffffffffffffffffffffffffffff16620001336200044e565b73ffffffffffffffffffffffffffffffffffffffff16146200018c576040517f08c379a0000000000000000000000000000000000000000000000000000000008152600401620001839062000993565b60405180910390fd5b8282826040516200019d9062000647565b620001ab939291906200091f565b604051809103906000f080158015620001c8573d6000803e3d6000fd5b5073ffffffffffffffffffffffffffffffffffffffff167febd15d054d361c60c58f9925b0eb215a65c72da767d3f8840f6ad8efd8101a3660405160405180910390a2505050565b606080606060008490508073ffffffffffffffffffffffffffffffffffffffff166306fdde036040518163ffffffff1660e01b815260040160006040518083038186803b1580156200026157600080fd5b505afa15801562000276573d6000803e3d6000fd5b505050506040513d6000823e3d601f19601f82011682018060405250810190620002a191906200077c565b8173ffffffffffffffffffffffffffffffffffffffff166395d89b416040518163ffffffff1660e01b815260040160006040518083038186803b158015620002e857600080fd5b505afa158015620002fd573d6000803e3d6000fd5b505050506040513d6000823e3d601f19601f820116820180604052508101906200032891906200077c565b8273ffffffffffffffffffffffffffffffffffffffff1663cf08fed56040518163ffffffff1660e01b815260040160006040518083038186803b1580156200036f57600080fd5b505afa15801562000384573d6000803e3d6000fd5b505050506040513d6000823e3d601f19601f82011682018060405250810190620003af91906200077c565b935093509350509193909250565b620003c76200057b565b73ffffffffffffffffffffffffffffffffffffffff16620003e76200044e565b73ffffffffffffffffffffffffffffffffffffffff161462000440576040517f08c379a0000000000000000000000000000000000000000000000000000000008152600401620004379062000993565b60405180910390fd5b6200044c600062000583565b565b60008060009054906101000a900473ffffffffffffffffffffffffffffffffffffffff16905090565b620004816200057b565b73ffffffffffffffffffffffffffffffffffffffff16620004a16200044e565b73ffffffffffffffffffffffffffffffffffffffff1614620004fa576040517f08c379a0000000000000000000000000000000000000000000000000000000008152600401620004f19062000993565b60405180910390fd5b600073ffffffffffffffffffffffffffffffffffffffff168173ffffffffffffffffffffffffffffffffffffffff1614156200056d576040517f08c379a0000000000000000000000000000000000000000000000000000000008152600401620005649062000971565b60405180910390fd5b620005788162000583565b50565b600033905090565b60008060009054906101000a900473ffffffffffffffffffffffffffffffffffffffff169050816000806101000a81548173ffffffffffffffffffffffffffffffffffffffff021916908373ffffffffffffffffffffffffffffffffffffffff1602179055508173ffffffffffffffffffffffffffffffffffffffff168173ffffffffffffffffffffffffffffffffffffffff167f8be0079c531659141344cd1fd0a4f28419497f9722a3daafe3b4186f6b6457e060405160405180910390a35050565b612d058062000bb283390190565b60006200066c6200066684620009de565b620009b5565b9050828152602081018484840111156200068557600080fd5b6200069284828562000a64565b509392505050565b6000620006b1620006ab84620009de565b620009b5565b905082815260208101848484011115620006ca57600080fd5b620006d784828562000a73565b509392505050565b600081359050620006f08162000b97565b92915050565b600082601f8301126200070857600080fd5b81356200071a84826020860162000655565b91505092915050565b600082601f8301126200073557600080fd5b8151620007478482602086016200069a565b91505092915050565b6000602082840312156200076357600080fd5b60006200077384828501620006df565b91505092915050565b6000602082840312156200078f57600080fd5b600082015167ffffffffffffffff811115620007aa57600080fd5b620007b88482850162000723565b91505092915050565b600080600060608486031215620007d757600080fd5b600084013567ffffffffffffffff811115620007f257600080fd5b6200080086828701620006f6565b935050602084013567ffffffffffffffff8111156200081e57600080fd5b6200082c86828701620006f6565b925050604084013567ffffffffffffffff8111156200084a57600080fd5b6200085886828701620006f6565b9150509250925092565b6200086d8162000a30565b82525050565b6000620008808262000a14565b6200088c818562000a1f565b93506200089e81856020860162000a73565b620008a98162000b0e565b840191505092915050565b6000620008c360268362000a1f565b9150620008d08262000b1f565b604082019050919050565b6000620008ea60208362000a1f565b9150620008f78262000b6e565b602082019050919050565b600060208201905062000919600083018462000862565b92915050565b600060608201905081810360008301526200093b818662000873565b9050818103602083015262000951818562000873565b9050818103604083015262000967818462000873565b9050949350505050565b600060208201905081810360008301526200098c81620008b4565b9050919050565b60006020820190508181036000830152620009ae81620008db565b9050919050565b6000620009c1620009d4565b9050620009cf828262000aa9565b919050565b6000604051905090565b600067ffffffffffffffff821115620009fc57620009fb62000adf565b5b62000a078262000b0e565b9050602081019050919050565b600081519050919050565b600082825260208201905092915050565b600062000a3d8262000a44565b9050919050565b600073ffffffffffffffffffffffffffffffffffffffff82169050919050565b82818337600083830152505050565b60005b8381101562000a9357808201518184015260208101905062000a76565b8381111562000aa3576000848401525b50505050565b62000ab48262000b0e565b810181811067ffffffffffffffff8211171562000ad65762000ad562000adf565b5b80604052505050565b7f4e487b7100000000000000000000000000000000000000000000000000000000600052604160045260246000fd5b6000601f19601f8301169050919050565b7f4f776e61626c653a206e6577206f776e657220697320746865207a65726f206160008201527f6464726573730000000000000000000000000000000000000000000000000000602082015250565b7f4f776e61626c653a2063616c6c6572206973206e6f7420746865206f776e6572600082015250565b62000ba28162000a30565b811462000bae57600080fd5b5056fe60806040523480156200001157600080fd5b5060405162002d0538038062002d0583398181016040528101906200003791906200029f565b82828160009080519060200190620000519291906200017d565b5080600190805190602001906200006a9291906200017d565b5050506200008d62000081620000af60201b60201c565b620000b760201b60201c565b8060079080519060200190620000a59291906200017d565b50505050620004b0565b600033905090565b6000600660009054906101000a900473ffffffffffffffffffffffffffffffffffffffff16905081600660006101000a81548173ffffffffffffffffffffffffffffffffffffffff021916908373ffffffffffffffffffffffffffffffffffffffff1602179055508173ffffffffffffffffffffffffffffffffffffffff168173ffffffffffffffffffffffffffffffffffffffff167f8be0079c531659141344cd1fd0a4f28419497f9722a3daafe3b4186f6b6457e060405160405180910390a35050565b8280546200018b90620003d5565b90600052602060002090601f016020900481019282620001af5760008555620001fb565b82601f10620001ca57805160ff1916838001178555620001fb565b82800160010185558215620001fb579182015b82811115620001fa578251825591602001919060010190620001dd565b5b5090506200020a91906200020e565b5090565b5b80821115620002295760008160009055506001016200020f565b5090565b6000620002446200023e8462000369565b62000340565b9050828152602081018484840111156200025d57600080fd5b6200026a8482856200039f565b509392505050565b600082601f8301126200028457600080fd5b8151620002968482602086016200022d565b91505092915050565b600080600060608486031215620002b557600080fd5b600084015167ffffffffffffffff811115620002d057600080fd5b620002de8682870162000272565b935050602084015167ffffffffffffffff811115620002fc57600080fd5b6200030a8682870162000272565b925050604084015167ffffffffffffffff8111156200032857600080fd5b620003368682870162000272565b9150509250925092565b60006200034c6200035f565b90506200035a82826200040b565b919050565b6000604051905090565b600067ffffffffffffffff82111562000387576200038662000470565b5b62000392826200049f565b9050602081019050919050565b60005b83811015620003bf578082015181840152602081019050620003a2565b83811115620003cf576000848401525b50505050565b60006002820490506001821680620003ee57607f821691505b6020821081141562000405576200040462000441565b5b50919050565b62000416826200049f565b810181811067ffffffffffffffff8211171562000438576200043762000470565b5b80604052505050565b7f4e487b7100000000000000000000000000000000000000000000000000000000600052602260045260246000fd5b7f4e487b7100000000000000000000000000000000000000000000000000000000600052604160045260246000fd5b6000601f19601f8301169050919050565b61284580620004c06000396000f3fe608060405234801561001057600080fd5b506004361061010b5760003560e01c8063715018a6116100a2578063b88d4fde11610071578063b88d4fde146102a4578063c87b56dd146102c0578063cf08fed5146102f0578063e985e9c51461030e578063f2fde38b1461033e5761010b565b8063715018a6146102425780638da5cb5b1461024c57806395d89b411461026a578063a22cb465146102885761010b565b806323b872dd116100de57806323b872dd146101aa57806342842e0e146101c65780636352211e146101e257806370a08231146102125761010b565b806301ffc9a71461011057806306fdde0314610140578063081812fc1461015e578063095ea7b31461018e575b600080fd5b61012a60048036038101906101259190611a21565b61035a565b6040516101379190611de1565b60405180910390f35b61014861043c565b6040516101559190611dfc565b60405180910390f35b61017860048036038101906101739190611a73565b6104ce565b6040516101859190611d7a565b60405180910390f35b6101a860048036038101906101a391906119e5565b610553565b005b6101c460048036038101906101bf91906118df565b61066b565b005b6101e060048036038101906101db91906118df565b6106cb565b005b6101fc60048036038101906101f79190611a73565b6106eb565b6040516102099190611d7a565b60405180910390f35b61022c6004803603810190610227919061187a565b61079d565b6040516102399190611fde565b60405180910390f35b61024a610855565b005b6102546108dd565b6040516102619190611d7a565b60405180910390f35b610272610907565b60405161027f9190611dfc565b60405180910390f35b6102a2600480360381019061029d91906119a9565b610999565b005b6102be60048036038101906102b9919061192e565b6109af565b005b6102da60048036038101906102d59190611a73565b610a11565b6040516102e79190611dfc565b60405180910390f35b6102f8610ab8565b6040516103059190611dfc565b60405180910390f35b610328600480360381019061032391906118a3565b610b4a565b6040516103359190611de1565b60405180910390f35b6103586004803603810190610353919061187a565b610bde565b005b60007f80ac58cd000000000000000000000000000000000000000000000000000000007bffffffffffffffffffffffffffffffffffffffffffffffffffffffff1916827bffffffffffffffffffffffffffffffffffffffffffffffffffffffff1916148061042557507f5b5e139f000000000000000000000000000000000000000000000000000000007bffffffffffffffffffffffffffffffffffffffffffffffffffffffff1916827bffffffffffffffffffffffffffffffffffffffffffffffffffffffff1916145b80610435575061043482610cd6565b5b9050919050565b60606000805461044b90612203565b80601f016020809104026020016040519081016040528092919081815260200182805461047790612203565b80156104c45780601f10610499576101008083540402835291602001916104c4565b820191906000526020600020905b8154815290600101906020018083116104a757829003601f168201915b5050505050905090565b60006104d982610d40565b610518576040517f08c379a000000000000000000000000000000000000000000000000000000000815260040161050f90611f1e565b60405180910390fd5b6004600083815260200190815260200160002060009054906101000a900473ffffffffffffffffffffffffffffffffffffffff169050919050565b600061055e826106eb565b90508073ffffffffffffffffffffffffffffffffffffffff168373ffffffffffffffffffffffffffffffffffffffff1614156105cf576040517f08c379a00000000000000000000000000000000000000000000000000000000081526004016105c690611f9e565b60405180910390fd5b8073ffffffffffffffffffffffffffffffffffffffff166105ee610dac565b73ffffffffffffffffffffffffffffffffffffffff16148061061d575061061c81610617610dac565b610b4a565b5b61065c576040517f08c379a000000000000000000000000000000000000000000000000000000000815260040161065390611ebe565b60405180910390fd5b6106668383610db4565b505050565b61067c610676610dac565b82610e6d565b6106bb576040517f08c379a00000000000000000000000000000000000000000000000000000000081526004016106b290611fbe565b60405180910390fd5b6106c6838383610f4b565b505050565b6106e6838383604051806020016040528060008152506109af565b505050565b6000806002600084815260200190815260200160002060009054906101000a900473ffffffffffffffffffffffffffffffffffffffff169050600073ffffffffffffffffffffffffffffffffffffffff168173ffffffffffffffffffffffffffffffffffffffff161415610794576040517f08c379a000000000000000000000000000000000000000000000000000000000815260040161078b90611efe565b60405180910390fd5b80915050919050565b60008073ffffffffffffffffffffffffffffffffffffffff168273ffffffffffffffffffffffffffffffffffffffff16141561080e576040517f08c379a000000000000000000000000000000000000000000000000000000000815260040161080590611ede565b60405180910390fd5b600360008373ffffffffffffffffffffffffffffffffffffffff1673ffffffffffffffffffffffffffffffffffffffff168152602001908152602001600020549050919050565b61085d610dac565b73ffffffffffffffffffffffffffffffffffffffff1661087b6108dd565b73ffffffffffffffffffffffffffffffffffffffff16146108d1576040517f08c379a00000000000000000000000000000000000000000000000000000000081526004016108c890611f3e565b60405180910390fd5b6108db60006111a7565b565b6000600660009054906101000a900473ffffffffffffffffffffffffffffffffffffffff16905090565b60606001805461091690612203565b80601f016020809104026020016040519081016040528092919081815260200182805461094290612203565b801561098f5780601f106109645761010080835404028352916020019161098f565b820191906000526020600020905b81548152906001019060200180831161097257829003601f168201915b5050505050905090565b6109ab6109a4610dac565b838361126d565b5050565b6109c06109ba610dac565b83610e6d565b6109ff576040517f08c379a00000000000000000000000000000000000000000000000000000000081526004016109f690611fbe565b60405180910390fd5b610a0b848484846113da565b50505050565b6060610a1c82610d40565b610a5b576040517f08c379a0000000000000000000000000000000000000000000000000000000008152600401610a5290611f7e565b60405180910390fd5b6000610a65611436565b90506000815111610a855760405180602001604052806000815250610ab0565b80610a8f8461144d565b604051602001610aa0929190611d56565b6040516020818303038152906040525b915050919050565b606060078054610ac790612203565b80601f0160208091040260200160405190810160405280929190818152602001828054610af390612203565b8015610b405780601f10610b1557610100808354040283529160200191610b40565b820191906000526020600020905b815481529060010190602001808311610b2357829003601f168201915b5050505050905090565b6000600560008473ffffffffffffffffffffffffffffffffffffffff1673ffffffffffffffffffffffffffffffffffffffff16815260200190815260200160002060008373ffffffffffffffffffffffffffffffffffffffff1673ffffffffffffffffffffffffffffffffffffffff16815260200190815260200160002060009054906101000a900460ff16905092915050565b610be6610dac565b73ffffffffffffffffffffffffffffffffffffffff16610c046108dd565b73ffffffffffffffffffffffffffffffffffffffff1614610c5a576040517f08c379a0000000000000000000000000000000000000000000000000000000008152600401610c5190611f3e565b60405180910390fd5b600073ffffffffffffffffffffffffffffffffffffffff168173ffffffffffffffffffffffffffffffffffffffff161415610cca576040517f08c379a0000000000000000000000000000000000000000000000000000000008152600401610cc190611e3e565b60405180910390fd5b610cd3816111a7565b50565b60007f01ffc9a7000000000000000000000000000000000000000000000000000000007bffffffffffffffffffffffffffffffffffffffffffffffffffffffff1916827bffffffffffffffffffffffffffffffffffffffffffffffffffffffff1916149050919050565b60008073ffffffffffffffffffffffffffffffffffffffff166002600084815260200190815260200160002060009054906101000a900473ffffffffffffffffffffffffffffffffffffffff1673ffffffffffffffffffffffffffffffffffffffff1614159050919050565b600033905090565b816004600083815260200190815260200160002060006101000a81548173ffffffffffffffffffffffffffffffffffffffff021916908373ffffffffffffffffffffffffffffffffffffffff160217905550808273ffffffffffffffffffffffffffffffffffffffff16610e27836106eb565b73ffffffffffffffffffffffffffffffffffffffff167f8c5be1e5ebec7d5bd14f71427d1e84f3dd0314c0f7b2291e5b200ac8c7c3b92560405160405180910390a45050565b6000610e7882610d40565b610eb7576040517f08c379a0000000000000000000000000000000000000000000000000000000008152600401610eae90611e9e565b60405180910390fd5b6000610ec2836106eb565b90508073ffffffffffffffffffffffffffffffffffffffff168473ffffffffffffffffffffffffffffffffffffffff161480610f3157508373ffffffffffffffffffffffffffffffffffffffff16610f19846104ce565b73ffffffffffffffffffffffffffffffffffffffff16145b80610f425750610f418185610b4a565b5b91505092915050565b8273ffffffffffffffffffffffffffffffffffffffff16610f6b826106eb565b73ffffffffffffffffffffffffffffffffffffffff1614610fc1576040517f08c379a0000000000000000000000000000000000000000000000000000000008152600401610fb890611f5e565b60405180910390fd5b600073ffffffffffffffffffffffffffffffffffffffff168273ffffffffffffffffffffffffffffffffffffffff161415611031576040517f08c379a000000000000000000000000000000000000000000000000000000000815260040161102890611e5e565b60405180910390fd5b61103c8383836115fa565b611047600082610db4565b6001600360008573ffffffffffffffffffffffffffffffffffffffff1673ffffffffffffffffffffffffffffffffffffffff16815260200190815260200160002060008282546110979190612119565b925050819055506001600360008473ffffffffffffffffffffffffffffffffffffffff1673ffffffffffffffffffffffffffffffffffffffff16815260200190815260200160002060008282546110ee9190612092565b92505081905550816002600083815260200190815260200160002060006101000a81548173ffffffffffffffffffffffffffffffffffffffff021916908373ffffffffffffffffffffffffffffffffffffffff160217905550808273ffffffffffffffffffffffffffffffffffffffff168473ffffffffffffffffffffffffffffffffffffffff167fddf252ad1be2c89b69c2b068fc378daa952ba7f163c4a11628f55a4df523b3ef60405160405180910390a4505050565b6000600660009054906101000a900473ffffffffffffffffffffffffffffffffffffffff16905081600660006101000a81548173ffffffffffffffffffffffffffffffffffffffff021916908373ffffffffffffffffffffffffffffffffffffffff1602179055508173ffffffffffffffffffffffffffffffffffffffff168173ffffffffffffffffffffffffffffffffffffffff167f8be0079c531659141344cd1fd0a4f28419497f9722a3daafe3b4186f6b6457e060405160405180910390a35050565b8173ffffffffffffffffffffffffffffffffffffffff168373ffffffffffffffffffffffffffffffffffffffff1614156112dc576040517f08c379a00000000000000000000000000000000000000000000000000000000081526004016112d390611e7e565b60405180910390fd5b80600560008573ffffffffffffffffffffffffffffffffffffffff1673ffffffffffffffffffffffffffffffffffffffff16815260200190815260200160002060008473ffffffffffffffffffffffffffffffffffffffff1673ffffffffffffffffffffffffffffffffffffffff16815260200190815260200160002060006101000a81548160ff0219169083151502179055508173ffffffffffffffffffffffffffffffffffffffff168373ffffffffffffffffffffffffffffffffffffffff167f17307eab39ab6107e8899845ad3d59bd9653f200f220920489ca2b5937696c31836040516113cd9190611de1565b60405180910390a3505050565b6113e5848484610f4b565b6113f1848484846115ff565b611430576040517f08c379a000000000000000000000000000000000000000000000000000000000815260040161142790611e1e565b60405180910390fd5b50505050565b606060405180602001604052806000815250905090565b60606000821415611495576040518060400160405280600181526020017f300000000000000000000000000000000000000000000000000000000000000081525090506115f5565b600082905060005b600082146114c75780806114b090612266565b915050600a826114c091906120e8565b915061149d565b60008167ffffffffffffffff811115611509577f4e487b7100000000000000000000000000000000000000000000000000000000600052604160045260246000fd5b6040519080825280601f01601f19166020018201604052801561153b5781602001600182028036833780820191505090505b5090505b600085146115ee576001826115549190612119565b9150600a8561156391906122af565b603061156f9190612092565b60f81b8183815181106115ab577f4e487b7100000000000000000000000000000000000000000000000000000000600052603260045260246000fd5b60200101907effffffffffffffffffffffffffffffffffffffffffffffffffffffffffffff1916908160001a905350600a856115e791906120e8565b945061153f565b8093505050505b919050565b505050565b60006116208473ffffffffffffffffffffffffffffffffffffffff16611796565b15611789578373ffffffffffffffffffffffffffffffffffffffff1663150b7a02611649610dac565b8786866040518563ffffffff1660e01b815260040161166b9493929190611d95565b602060405180830381600087803b15801561168557600080fd5b505af19250505080156116b657506040513d601f19601f820116820180604052508101906116b39190611a4a565b60015b611739573d80600081146116e6576040519150601f19603f3d011682016040523d82523d6000602084013e6116eb565b606091505b50600081511415611731576040517f08c379a000000000000000000000000000000000000000000000000000000000815260040161172890611e1e565b60405180910390fd5b805181602001fd5b63150b7a0260e01b7bffffffffffffffffffffffffffffffffffffffffffffffffffffffff1916817bffffffffffffffffffffffffffffffffffffffffffffffffffffffff19161491505061178e565b600190505b949350505050565b600080823b905060008111915050919050565b60006117bc6117b78461201e565b611ff9565b9050828152602081018484840111156117d457600080fd5b6117df8482856121c1565b509392505050565b6000813590506117f6816127b3565b92915050565b60008135905061180b816127ca565b92915050565b600081359050611820816127e1565b92915050565b600081519050611835816127e1565b92915050565b600082601f83011261184c57600080fd5b813561185c8482602086016117a9565b91505092915050565b600081359050611874816127f8565b92915050565b60006020828403121561188c57600080fd5b600061189a848285016117e7565b91505092915050565b600080604083850312156118b657600080fd5b60006118c4858286016117e7565b92505060206118d5858286016117e7565b9150509250929050565b6000806000606084860312156118f457600080fd5b6000611902868287016117e7565b9350506020611913868287016117e7565b925050604061192486828701611865565b9150509250925092565b6000806000806080858703121561194457600080fd5b6000611952878288016117e7565b9450506020611963878288016117e7565b935050604061197487828801611865565b925050606085013567ffffffffffffffff81111561199157600080fd5b61199d8782880161183b565b91505092959194509250565b600080604083850312156119bc57600080fd5b60006119ca858286016117e7565b92505060206119db858286016117fc565b9150509250929050565b600080604083850312156119f857600080fd5b6000611a06858286016117e7565b9250506020611a1785828601611865565b9150509250929050565b600060208284031215611a3357600080fd5b6000611a4184828501611811565b91505092915050565b600060208284031215611a5c57600080fd5b6000611a6a84828501611826565b91505092915050565b600060208284031215611a8557600080fd5b6000611a9384828501611865565b91505092915050565b611aa58161214d565b82525050565b611ab48161215f565b82525050565b6000611ac58261204f565b611acf8185612065565b9350611adf8185602086016121d0565b611ae88161239c565b840191505092915050565b6000611afe8261205a565b611b088185612076565b9350611b188185602086016121d0565b611b218161239c565b840191505092915050565b6000611b378261205a565b611b418185612087565b9350611b518185602086016121d0565b80840191505092915050565b6000611b6a603283612076565b9150611b75826123ad565b604082019050919050565b6000611b8d602683612076565b9150611b98826123fc565b604082019050919050565b6000611bb0602483612076565b9150611bbb8261244b565b604082019050919050565b6000611bd3601983612076565b9150611bde8261249a565b602082019050919050565b6000611bf6602c83612076565b9150611c01826124c3565b604082019050919050565b6000611c19603883612076565b9150611c2482612512565b604082019050919050565b6000611c3c602a83612076565b9150611c4782612561565b604082019050919050565b6000611c5f602983612076565b9150611c6a826125b0565b604082019050919050565b6000611c82602c83612076565b9150611c8d826125ff565b604082019050919050565b6000611ca5602083612076565b9150611cb08261264e565b602082019050919050565b6000611cc8602983612076565b9150611cd382612677565b604082019050919050565b6000611ceb602f83612076565b9150611cf6826126c6565b604082019050919050565b6000611d0e602183612076565b9150611d1982612715565b604082019050919050565b6000611d31603183612076565b9150611d3c82612764565b604082019050919050565b611d50816121b7565b82525050565b6000611d628285611b2c565b9150611d6e8284611b2c565b91508190509392505050565b6000602082019050611d8f6000830184611a9c565b92915050565b6000608082019050611daa6000830187611a9c565b611db76020830186611a9c565b611dc46040830185611d47565b8181036060830152611dd68184611aba565b905095945050505050565b6000602082019050611df66000830184611aab565b92915050565b60006020820190508181036000830152611e168184611af3565b905092915050565b60006020820190508181036000830152611e3781611b5d565b9050919050565b60006020820190508181036000830152611e5781611b80565b9050919050565b60006020820190508181036000830152611e7781611ba3565b9050919050565b60006020820190508181036000830152611e9781611bc6565b9050919050565b60006020820190508181036000830152611eb781611be9565b9050919050565b60006020820190508181036000830152611ed781611c0c565b9050919050565b60006020820190508181036000830152611ef781611c2f565b9050919050565b60006020820190508181036000830152611f1781611c52565b9050919050565b60006020820190508181036000830152611f3781611c75565b9050919050565b60006020820190508181036000830152611f5781611c98565b9050919050565b60006020820190508181036000830152611f7781611cbb565b9050919050565b60006020820190508181036000830152611f9781611cde565b9050919050565b60006020820190508181036000830152611fb781611d01565b9050919050565b60006020820190508181036000830152611fd781611d24565b9050919050565b6000602082019050611ff36000830184611d47565b92915050565b6000612003612014565b905061200f8282612235565b919050565b6000604051905090565b600067ffffffffffffffff8211156120395761203861236d565b5b6120428261239c565b9050602081019050919050565b600081519050919050565b600081519050919050565b600082825260208201905092915050565b600082825260208201905092915050565b600081905092915050565b600061209d826121b7565b91506120a8836121b7565b9250827fffffffffffffffffffffffffffffffffffffffffffffffffffffffffffffffff038211156120dd576120dc6122e0565b5b828201905092915050565b60006120f3826121b7565b91506120fe836121b7565b92508261210e5761210d61230f565b5b828204905092915050565b6000612124826121b7565b915061212f836121b7565b925082821015612142576121416122e0565b5b828203905092915050565b600061215882612197565b9050919050565b60008115159050919050565b60007fffffffff0000000000000000000000000000000000000000000000000000000082169050919050565b600073ffffffffffffffffffffffffffffffffffffffff82169050919050565b6000819050919050565b82818337600083830152505050565b60005b838110156121ee5780820151818401526020810190506121d3565b838111156121fd576000848401525b50505050565b6000600282049050600182168061221b57607f821691505b6020821081141561222f5761222e61233e565b5b50919050565b61223e8261239c565b810181811067ffffffffffffffff8211171561225d5761225c61236d565b5b80604052505050565b6000612271826121b7565b91507fffffffffffffffffffffffffffffffffffffffffffffffffffffffffffffffff8214156122a4576122a36122e0565b5b600182019050919050565b60006122ba826121b7565b91506122c5836121b7565b9250826122d5576122d461230f565b5b828206905092915050565b7f4e487b7100000000000000000000000000000000000000000000000000000000600052601160045260246000fd5b7f4e487b7100000000000000000000000000000000000000000000000000000000600052601260045260246000fd5b7f4e487b7100000000000000000000000000000000000000000000000000000000600052602260045260246000fd5b7f4e487b7100000000000000000000000000000000000000000000000000000000600052604160045260246000fd5b6000601f19601f8301169050919050565b7f4552433732313a207472616e7366657220746f206e6f6e20455243373231526560008201527f63656976657220696d706c656d656e7465720000000000000000000000000000602082015250565b7f4f776e61626c653a206e6577206f776e657220697320746865207a65726f206160008201527f6464726573730000000000000000000000000000000000000000000000000000602082015250565b7f4552433732313a207472616e7366657220746f20746865207a65726f2061646460008201527f7265737300000000000000000000000000000000000000000000000000000000602082015250565b7f4552433732313a20617070726f766520746f2063616c6c657200000000000000600082015250565b7f4552433732313a206f70657261746f7220717565727920666f72206e6f6e657860008201527f697374656e7420746f6b656e0000000000000000000000000000000000000000602082015250565b7f4552433732313a20617070726f76652063616c6c6572206973206e6f74206f7760008201527f6e6572206e6f7220617070726f76656420666f7220616c6c0000000000000000602082015250565b7f4552433732313a2062616c616e636520717565727920666f7220746865207a6560008201527f726f206164647265737300000000000000000000000000000000000000000000602082015250565b7f4552433732313a206f776e657220717565727920666f72206e6f6e657869737460008201527f656e7420746f6b656e0000000000000000000000000000000000000000000000602082015250565b7f4552433732313a20617070726f76656420717565727920666f72206e6f6e657860008201527f697374656e7420746f6b656e0000000000000000000000000000000000000000602082015250565b7f4f776e61626c653a2063616c6c6572206973206e6f7420746865206f776e6572600082015250565b7f4552433732313a207472616e73666572206f6620746f6b656e2074686174206960008201527f73206e6f74206f776e0000000000000000000000000000000000000000000000602082015250565b7f4552433732314d657461646174613a2055524920717565727920666f72206e6f60008201527f6e6578697374656e7420746f6b656e0000000000000000000000000000000000602082015250565b7f4552433732313a20617070726f76616c20746f2063757272656e74206f776e6560008201527f7200000000000000000000000000000000000000000000000000000000000000602082015250565b7f4552433732313a207472616e736665722063616c6c6572206973206e6f74206f60008201527f776e6572206e6f7220617070726f766564000000000000000000000000000000602082015250565b6127bc8161214d565b81146127c757600080fd5b50565b6127d38161215f565b81146127de57600080fd5b50565b6127ea8161216b565b81146127f557600080fd5b50565b612801816121b7565b811461280c57600080fd5b5056fea264697066735822122022d54597161e19922697499011e8df9f288f4038adb23bcfe22fa6b466b58b3064736f6c63430008040033a264697066735822122096743f1b7517ecea92b30c911490f81c1bfe328a1fa8672e08e9b2653f4f566864736f6c6343000804003360806040523480156200001157600080fd5b5060405162002d0538038062002d0583398181016040528101906200003791906200029f565b82828160009080519060200190620000519291906200017d565b5080600190805190602001906200006a9291906200017d565b5050506200008d62000081620000af60201b60201c565b620000b760201b60201c565b8060079080519060200190620000a59291906200017d565b50505050620004b0565b600033905090565b6000600660009054906101000a900473ffffffffffffffffffffffffffffffffffffffff16905081600660006101000a81548173ffffffffffffffffffffffffffffffffffffffff021916908373ffffffffffffffffffffffffffffffffffffffff1602179055508173ffffffffffffffffffffffffffffffffffffffff168173ffffffffffffffffffffffffffffffffffffffff167f8be0079c531659141344cd1fd0a4f28419497f9722a3daafe3b4186f6b6457e060405160405180910390a35050565b8280546200018b90620003d5565b90600052602060002090601f016020900481019282620001af5760008555620001fb565b82601f10620001ca57805160ff1916838001178555620001fb565b82800160010185558215620001fb579182015b82811115620001fa578251825591602001919060010190620001dd565b5b5090506200020a91906200020e565b5090565b5b80821115620002295760008160009055506001016200020f565b5090565b6000620002446200023e8462000369565b62000340565b9050828152602081018484840111156200025d57600080fd5b6200026a8482856200039f565b509392505050565b600082601f8301126200028457600080fd5b8151620002968482602086016200022d565b91505092915050565b600080600060608486031215620002b557600080fd5b600084015167ffffffffffffffff811115620002d057600080fd5b620002de8682870162000272565b935050602084015167ffffffffffffffff811115620002fc57600080fd5b6200030a8682870162000272565b925050604084015167ffffffffffffffff8111156200032857600080fd5b620003368682870162000272565b9150509250925092565b60006200034c6200035f565b90506200035a82826200040b565b919050565b6000604051905090565b600067ffffffffffffffff82111562000387576200038662000470565b5b62000392826200049f565b9050602081019050919050565b60005b83811015620003bf578082015181840152602081019050620003a2565b83811115620003cf576000848401525b50505050565b60006002820490506001821680620003ee57607f821691505b6020821081141562000405576200040462000441565b5b50919050565b62000416826200049f565b810181811067ffffffffffffffff8211171562000438576200043762000470565b5b80604052505050565b7f4e487b7100000000000000000000000000000000000000000000000000000000600052602260045260246000fd5b7f4e487b7100000000000000000000000000000000000000000000000000000000600052604160045260246000fd5b6000601f19601f8301169050919050565b61284580620004c06000396000f3fe608060405234801561001057600080fd5b506004361061010b5760003560e01c8063715018a6116100a2578063b88d4fde11610071578063b88d4fde146102a4578063c87b56dd146102c0578063cf08fed5146102f0578063e985e9c51461030e578063f2fde38b1461033e5761010b565b8063715018a6146102425780638da5cb5b1461024c57806395d89b411461026a578063a22cb465146102885761010b565b806323b872dd116100de57806323b872dd146101aa57806342842e0e146101c65780636352211e146101e257806370a08231146102125761010b565b806301ffc9a71461011057806306fdde0314610140578063081812fc1461015e578063095ea7b31461018e575b600080fd5b61012a60048036038101906101259190611a21565b61035a565b6040516101379190611de1565b60405180910390f35b61014861043c565b6040516101559190611dfc565b60405180910390f35b61017860048036038101906101739190611a73565b6104ce565b6040516101859190611d7a565b60405180910390f35b6101a860048036038101906101a391906119e5565b610553565b005b6101c460048036038101906101bf91906118df565b61066b565b005b6101e060048036038101906101db91906118df565b6106cb565b005b6101fc60048036038101906101f79190611a73565b6106eb565b6040516102099190611d7a565b60405180910390f35b61022c6004803603810190610227919061187a565b61079d565b6040516102399190611fde565b60405180910390f35b61024a610855565b005b6102546108dd565b6040516102619190611d7a565b60405180910390f35b610272610907565b60405161027f9190611dfc565b60405180910390f35b6102a2600480360381019061029d91906119a9565b610999565b005b6102be60048036038101906102b9919061192e565b6109af565b005b6102da60048036038101906102d59190611a73565b610a11565b6040516102e79190611dfc565b60405180910390f35b6102f8610ab8565b6040516103059190611dfc565b60405180910390f35b610328600480360381019061032391906118a3565b610b4a565b6040516103359190611de1565b60405180910390f35b6103586004803603810190610353919061187a565b610bde565b005b60007f80ac58cd000000000000000000000000000000000000000000000000000000007bffffffffffffffffffffffffffffffffffffffffffffffffffffffff1916827bffffffffffffffffffffffffffffffffffffffffffffffffffffffff1916148061042557507f5b5e139f000000000000000000000000000000000000000000000000000000007bffffffffffffffffffffffffffffffffffffffffffffffffffffffff1916827bffffffffffffffffffffffffffffffffffffffffffffffffffffffff1916145b80610435575061043482610cd6565b5b9050919050565b60606000805461044b90612203565b80601f016020809104026020016040519081016040528092919081815260200182805461047790612203565b80156104c45780601f10610499576101008083540402835291602001916104c4565b820191906000526020600020905b8154815290600101906020018083116104a757829003601f168201915b5050505050905090565b60006104d982610d40565b610518576040517f08c379a000000000000000000000000000000000000000000000000000000000815260040161050f90611f1e565b60405180910390fd5b6004600083815260200190815260200160002060009054906101000a900473ffffffffffffffffffffffffffffffffffffffff169050919050565b600061055e826106eb565b90508073ffffffffffffffffffffffffffffffffffffffff168373ffffffffffffffffffffffffffffffffffffffff1614156105cf576040517f08c379a00000000000000000000000000000000000000000000000000000000081526004016105c690611f9e565b60405180910390fd5b8073ffffffffffffffffffffffffffffffffffffffff166105ee610dac565b73ffffffffffffffffffffffffffffffffffffffff16148061061d575061061c81610617610dac565b610b4a565b5b61065c576040517f08c379a000000000000000000000000000000000000000000000000000000000815260040161065390611ebe565b60405180910390fd5b6106668383610db4565b505050565b61067c610676610dac565b82610e6d565b6106bb576040517f08c379a00000000000000000000000000000000000000000000000000000000081526004016106b290611fbe565b60405180910390fd5b6106c6838383610f4b565b505050565b6106e6838383604051806020016040528060008152506109af565b505050565b6000806002600084815260200190815260200160002060009054906101000a900473ffffffffffffffffffffffffffffffffffffffff169050600073ffffffffffffffffffffffffffffffffffffffff168173ffffffffffffffffffffffffffffffffffffffff161415610794576040517f08c379a000000000000000000000000000000000000000000000000000000000815260040161078b90611efe565b60405180910390fd5b80915050919050565b60008073ffffffffffffffffffffffffffffffffffffffff168273ffffffffffffffffffffffffffffffffffffffff16141561080e576040517f08c379a000000000000000000000000000000000000000000000000000000000815260040161080590611ede565b60405180910390fd5b600360008373ffffffffffffffffffffffffffffffffffffffff1673ffffffffffffffffffffffffffffffffffffffff168152602001908152602001600020549050919050565b61085d610dac565b73ffffffffffffffffffffffffffffffffffffffff1661087b6108dd565b73ffffffffffffffffffffffffffffffffffffffff16146108d1576040517f08c379a00000000000000000000000000000000000000000000000000000000081526004016108c890611f3e565b60405180910390fd5b6108db60006111a7565b565b6000600660009054906101000a900473ffffffffffffffffffffffffffffffffffffffff16905090565b60606001805461091690612203565b80601f016020809104026020016040519081016040528092919081815260200182805461094290612203565b801561098f5780601f106109645761010080835404028352916020019161098f565b820191906000526020600020905b81548152906001019060200180831161097257829003601f168201915b5050505050905090565b6109ab6109a4610dac565b838361126d565b5050565b6109c06109ba610dac565b83610e6d565b6109ff576040517f08c379a00000000000000000000000000000000000000000000000000000000081526004016109f690611fbe565b60405180910390fd5b610a0b848484846113da565b50505050565b6060610a1c82610d40565b610a5b576040517f08c379a0000000000000000000000000000000000000000000000000000000008152600401610a5290611f7e565b60405180910390fd5b6000610a65611436565b90506000815111610a855760405180602001604052806000815250610ab0565b80610a8f8461144d565b604051602001610aa0929190611d56565b6040516020818303038152906040525b915050919050565b606060078054610ac790612203565b80601f0160208091040260200160405190810160405280929190818152602001828054610af390612203565b8015610b405780601f10610b1557610100808354040283529160200191610b40565b820191906000526020600020905b815481529060010190602001808311610b2357829003601f168201915b5050505050905090565b6000600560008473ffffffffffffffffffffffffffffffffffffffff1673ffffffffffffffffffffffffffffffffffffffff16815260200190815260200160002060008373ffffffffffffffffffffffffffffffffffffffff1673ffffffffffffffffffffffffffffffffffffffff16815260200190815260200160002060009054906101000a900460ff16905092915050565b610be6610dac565b73ffffffffffffffffffffffffffffffffffffffff16610c046108dd565b73ffffffffffffffffffffffffffffffffffffffff1614610c5a576040517f08c379a0000000000000000000000000000000000000000000000000000000008152600401610c5190611f3e565b60405180910390fd5b600073ffffffffffffffffffffffffffffffffffffffff168173ffffffffffffffffffffffffffffffffffffffff161415610cca576040517f08c379a0000000000000000000000000000000000000000000000000000000008152600401610cc190611e3e565b60405180910390fd5b610cd3816111a7565b50565b60007f01ffc9a7000000000000000000000000000000000000000000000000000000007bffffffffffffffffffffffffffffffffffffffffffffffffffffffff1916827bffffffffffffffffffffffffffffffffffffffffffffffffffffffff1916149050919050565b60008073ffffffffffffffffffffffffffffffffffffffff166002600084815260200190815260200160002060009054906101000a900473ffffffffffffffffffffffffffffffffffffffff1673ffffffffffffffffffffffffffffffffffffffff1614159050919050565b600033905090565b816004600083815260200190815260200160002060006101000a81548173ffffffffffffffffffffffffffffffffffffffff021916908373ffffffffffffffffffffffffffffffffffffffff160217905550808273ffffffffffffffffffffffffffffffffffffffff16610e27836106eb565b73ffffffffffffffffffffffffffffffffffffffff167f8c5be1e5ebec7d5bd14f71427d1e84f3dd0314c0f7b2291e5b200ac8c7c3b92560405160405180910390a45050565b6000610e7882610d40565b610eb7576040517f08c379a0000000000000000000000000000000000000000000000000000000008152600401610eae90611e9e565b60405180910390fd5b6000610ec2836106eb565b90508073ffffffffffffffffffffffffffffffffffffffff168473ffffffffffffffffffffffffffffffffffffffff161480610f3157508373ffffffffffffffffffffffffffffffffffffffff16610f19846104ce565b73ffffffffffffffffffffffffffffffffffffffff16145b80610f425750610f418185610b4a565b5b91505092915050565b8273ffffffffffffffffffffffffffffffffffffffff16610f6b826106eb565b73ffffffffffffffffffffffffffffffffffffffff1614610fc1576040517f08c379a0000000000000000000000000000000000000000000000000000000008152600401610fb890611f5e565b60405180910390fd5b600073ffffffffffffffffffffffffffffffffffffffff168273ffffffffffffffffffffffffffffffffffffffff161415611031576040517f08c379a000000000000000000000000000000000000000000000000000000000815260040161102890611e5e565b60405180910390fd5b61103c8383836115fa565b611047600082610db4565b6001600360008573ffffffffffffffffffffffffffffffffffffffff1673ffffffffffffffffffffffffffffffffffffffff16815260200190815260200160002060008282546110979190612119565b925050819055506001600360008473ffffffffffffffffffffffffffffffffffffffff1673ffffffffffffffffffffffffffffffffffffffff16815260200190815260200160002060008282546110ee9190612092565b92505081905550816002600083815260200190815260200160002060006101000a81548173ffffffffffffffffffffffffffffffffffffffff021916908373ffffffffffffffffffffffffffffffffffffffff160217905550808273ffffffffffffffffffffffffffffffffffffffff168473ffffffffffffffffffffffffffffffffffffffff167fddf252ad1be2c89b69c2b068fc378daa952ba7f163c4a11628f55a4df523b3ef60405160405180910390a4505050565b6000600660009054906101000a900473ffffffffffffffffffffffffffffffffffffffff16905081600660006101000a81548173ffffffffffffffffffffffffffffffffffffffff021916908373ffffffffffffffffffffffffffffffffffffffff1602179055508173ffffffffffffffffffffffffffffffffffffffff168173ffffffffffffffffffffffffffffffffffffffff167f8be0079c531659141344cd1fd0a4f28419497f9722a3daafe3b4186f6b6457e060405160405180910390a35050565b8173ffffffffffffffffffffffffffffffffffffffff168373ffffffffffffffffffffffffffffffffffffffff1614156112dc576040517f08c379a00000000000000000000000000000000000000000000000000000000081526004016112d390611e7e565b60405180910390fd5b80600560008573ffffffffffffffffffffffffffffffffffffffff1673ffffffffffffffffffffffffffffffffffffffff16815260200190815260200160002060008473ffffffffffffffffffffffffffffffffffffffff1673ffffffffffffffffffffffffffffffffffffffff16815260200190815260200160002060006101000a81548160ff0219169083151502179055508173ffffffffffffffffffffffffffffffffffffffff168373ffffffffffffffffffffffffffffffffffffffff167f17307eab39ab6107e8899845ad3d59bd9653f200f220920489ca2b5937696c31836040516113cd9190611de1565b60405180910390a3505050565b6113e5848484610f4b565b6113f1848484846115ff565b611430576040517f08c379a000000000000000000000000000000000000000000000000000000000815260040161142790611e1e565b60405180910390fd5b50505050565b606060405180602001604052806000815250905090565b60606000821415611495576040518060400160405280600181526020017f300000000000000000000000000000000000000000000000000000000000000081525090506115f5565b600082905060005b600082146114c75780806114b090612266565b915050600a826114c091906120e8565b915061149d565b60008167ffffffffffffffff811115611509577f4e487b7100000000000000000000000000000000000000000000000000000000600052604160045260246000fd5b6040519080825280601f01601f19166020018201604052801561153b5781602001600182028036833780820191505090505b5090505b600085146115ee576001826115549190612119565b9150600a8561156391906122af565b603061156f9190612092565b60f81b8183815181106115ab577f4e487b7100000000000000000000000000000000000000000000000000000000600052603260045260246000fd5b60200101907effffffffffffffffffffffffffffffffffffffffffffffffffffffffffffff1916908160001a905350600a856115e791906120e8565b945061153f565b8093505050505b919050565b505050565b60006116208473ffffffffffffffffffffffffffffffffffffffff16611796565b15611789578373ffffffffffffffffffffffffffffffffffffffff1663150b7a02611649610dac565b8786866040518563ffffffff1660e01b815260040161166b9493929190611d95565b602060405180830381600087803b15801561168557600080fd5b505af19250505080156116b657506040513d601f19601f820116820180604052508101906116b39190611a4a565b60015b611739573d80600081146116e6576040519150601f19603f3d011682016040523d82523d6000602084013e6116eb565b606091505b50600081511415611731576040517f08c379a000000000000000000000000000000000000000000000000000000000815260040161172890611e1e565b60405180910390fd5b805181602001fd5b63150b7a0260e01b7bffffffffffffffffffffffffffffffffffffffffffffffffffffffff1916817bffffffffffffffffffffffffffffffffffffffffffffffffffffffff19161491505061178e565b600190505b949350505050565b600080823b905060008111915050919050565b60006117bc6117b78461201e565b611ff9565b9050828152602081018484840111156117d457600080fd5b6117df8482856121c1565b509392505050565b6000813590506117f6816127b3565b92915050565b60008135905061180b816127ca565b92915050565b600081359050611820816127e1565b92915050565b600081519050611835816127e1565b92915050565b600082601f83011261184c57600080fd5b813561185c8482602086016117a9565b91505092915050565b600081359050611874816127f8565b92915050565b60006020828403121561188c57600080fd5b600061189a848285016117e7565b91505092915050565b600080604083850312156118b657600080fd5b60006118c4858286016117e7565b92505060206118d5858286016117e7565b9150509250929050565b6000806000606084860312156118f457600080fd5b6000611902868287016117e7565b9350506020611913868287016117e7565b925050604061192486828701611865565b9150509250925092565b6000806000806080858703121561194457600080fd5b6000611952878288016117e7565b9450506020611963878288016117e7565b935050604061197487828801611865565b925050606085013567ffffffffffffffff81111561199157600080fd5b61199d8782880161183b565b91505092959194509250565b600080604083850312156119bc57600080fd5b60006119ca858286016117e7565b92505060206119db858286016117fc565b9150509250929050565b600080604083850312156119f857600080fd5b6000611a06858286016117e7565b9250506020611a1785828601611865565b9150509250929050565b600060208284031215611a3357600080fd5b6000611a4184828501611811565b91505092915050565b600060208284031215611a5c57600080fd5b6000611a6a84828501611826565b91505092915050565b600060208284031215611a8557600080fd5b6000611a9384828501611865565b91505092915050565b611aa58161214d565b82525050565b611ab48161215f565b82525050565b6000611ac58261204f565b611acf8185612065565b9350611adf8185602086016121d0565b611ae88161239c565b840191505092915050565b6000611afe8261205a565b611b088185612076565b9350611b188185602086016121d0565b611b218161239c565b840191505092915050565b6000611b378261205a565b611b418185612087565b9350611b518185602086016121d0565b80840191505092915050565b6000611b6a603283612076565b9150611b75826123ad565b604082019050919050565b6000611b8d602683612076565b9150611b98826123fc565b604082019050919050565b6000611bb0602483612076565b9150611bbb8261244b565b604082019050919050565b6000611bd3601983612076565b9150611bde8261249a565b602082019050919050565b6000611bf6602c83612076565b9150611c01826124c3565b604082019050919050565b6000611c19603883612076565b9150611c2482612512565b604082019050919050565b6000611c3c602a83612076565b9150611c4782612561565b604082019050919050565b6000611c5f602983612076565b9150611c6a826125b0565b604082019050919050565b6000611c82602c83612076565b9150611c8d826125ff565b604082019050919050565b6000611ca5602083612076565b9150611cb08261264e565b602082019050919050565b6000611cc8602983612076565b9150611cd382612677565b604082019050919050565b6000611ceb602f83612076565b9150611cf6826126c6565b604082019050919050565b6000611d0e602183612076565b9150611d1982612715565b604082019050919050565b6000611d31603183612076565b9150611d3c82612764565b604082019050919050565b611d50816121b7565b82525050565b6000611d628285611b2c565b9150611d6e8284611b2c565b91508190509392505050565b6000602082019050611d8f6000830184611a9c565b92915050565b6000608082019050611daa6000830187611a9c565b611db76020830186611a9c565b611dc46040830185611d47565b8181036060830152611dd68184611aba565b905095945050505050565b6000602082019050611df66000830184611aab565b92915050565b60006020820190508181036000830152611e168184611af3565b905092915050565b60006020820190508181036000830152611e3781611b5d565b9050919050565b60006020820190508181036000830152611e5781611b80565b9050919050565b60006020820190508181036000830152611e7781611ba3565b9050919050565b60006020820190508181036000830152611e9781611bc6565b9050919050565b60006020820190508181036000830152611eb781611be9565b9050919050565b60006020820190508181036000830152611ed781611c0c565b9050919050565b60006020820190508181036000830152611ef781611c2f565b9050919050565b60006020820190508181036000830152611f1781611c52565b9050919050565b60006020820190508181036000830152611f3781611c75565b9050919050565b60006020820190508181036000830152611f5781611c98565b9050919050565b60006020820190508181036000830152611f7781611cbb565b9050919050565b60006020820190508181036000830152611f9781611cde565b9050919050565b60006020820190508181036000830152611fb781611d01565b9050919050565b60006020820190508181036000830152611fd781611d24565b9050919050565b6000602082019050611ff36000830184611d47565b92915050565b6000612003612014565b905061200f8282612235565b919050565b6000604051905090565b600067ffffffffffffffff8211156120395761203861236d565b5b6120428261239c565b9050602081019050919050565b600081519050919050565b600081519050919050565b600082825260208201905092915050565b600082825260208201905092915050565b600081905092915050565b600061209d826121b7565b91506120a8836121b7565b9250827fffffffffffffffffffffffffffffffffffffffffffffffffffffffffffffffff038211156120dd576120dc6122e0565b5b828201905092915050565b60006120f3826121b7565b91506120fe836121b7565b92508261210e5761210d61230f565b5b828204905092915050565b6000612124826121b7565b915061212f836121b7565b925082821015612142576121416122e0565b5b828203905092915050565b600061215882612197565b9050919050565b60008115159050919050565b60007fffffffff0000000000000000000000000000000000000000000000000000000082169050919050565b600073ffffffffffffffffffffffffffffffffffffffff82169050919050565b6000819050919050565b82818337600083830152505050565b60005b838110156121ee5780820151818401526020810190506121d3565b838111156121fd576000848401525b50505050565b6000600282049050600182168061221b57607f821691505b6020821081141561222f5761222e61233e565b5b50919050565b61223e8261239c565b810181811067ffffffffffffffff8211171561225d5761225c61236d565b5b80604052505050565b6000612271826121b7565b91507fffffffffffffffffffffffffffffffffffffffffffffffffffffffffffffffff8214156122a4576122a36122e0565b5b600182019050919050565b60006122ba826121b7565b91506122c5836121b7565b9250826122d5576122d461230f565b5b828206905092915050565b7f4e487b7100000000000000000000000000000000000000000000000000000000600052601160045260246000fd5b7f4e487b7100000000000000000000000000000000000000000000000000000000600052601260045260246000fd5b7f4e487b7100000000000000000000000000000000000000000000000000000000600052602260045260246000fd5b7f4e487b7100000000000000000000000000000000000000000000000000000000600052604160045260246000fd5b6000601f19601f8301169050919050565b7f4552433732313a207472616e7366657220746f206e6f6e20455243373231526560008201527f63656976657220696d706c656d656e7465720000000000000000000000000000602082015250565b7f4f776e61626c653a206e6577206f776e657220697320746865207a65726f206160008201527f6464726573730000000000000000000000000000000000000000000000000000602082015250565b7f4552433732313a207472616e7366657220746f20746865207a65726f2061646460008201527f7265737300000000000000000000000000000000000000000000000000000000602082015250565b7f4552433732313a20617070726f766520746f2063616c6c657200000000000000600082015250565b7f4552433732313a206f70657261746f7220717565727920666f72206e6f6e657860008201527f697374656e7420746f6b656e0000000000000000000000000000000000000000602082015250565b7f4552433732313a20617070726f76652063616c6c6572206973206e6f74206f7760008201527f6e6572206e6f7220617070726f76656420666f7220616c6c0000000000000000602082015250565b7f4552433732313a2062616c616e636520717565727920666f7220746865207a6560008201527f726f206164647265737300000000000000000000000000000000000000000000602082015250565b7f4552433732313a206f776e657220717565727920666f72206e6f6e657869737460008201527f656e7420746f6b656e0000000000000000000000000000000000000000000000602082015250565b7f4552433732313a20617070726f76656420717565727920666f72206e6f6e657860008201527f697374656e7420746f6b656e0000000000000000000000000000000000000000602082015250565b7f4f776e61626c653a2063616c6c6572206973206e6f7420746865206f776e6572600082015250565b7f4552433732313a207472616e73666572206f6620746f6b656e2074686174206960008201527f73206e6f74206f776e0000000000000000000000000000000000000000000000602082015250565b7f4552433732314d657461646174613a2055524920717565727920666f72206e6f60008201527f6e6578697374656e7420746f6b656e0000000000000000000000000000000000602082015250565b7f4552433732313a20617070726f76616c20746f2063757272656e74206f776e6560008201527f7200000000000000000000000000000000000000000000000000000000000000602082015250565b7f4552433732313a207472616e736665722063616c6c6572206973206e6f74206f60008201527f776e6572206e6f7220617070726f766564000000000000000000000000000000602082015250565b6127bc8161214d565b81146127c757600080fd5b50565b6127d38161215f565b81146127de57600080fd5b50565b6127ea8161216b565b81146127f557600080fd5b50565b612801816121b7565b811461280c57600080fd5b5056fea264697066735822122022d54597161e19922697499011e8df9f288f4038adb23bcfe22fa6b466b58b3064736f6c63430008040033",
  "linkReferences": {},
  "deployedLinkReferences": {}
}